{
  "contractName": "LicenseStorage",
  "abi": [
    {
      "anonymous": false,
      "inputs": [
        {
          "indexed": true,
          "internalType": "address",
          "name": "user",
          "type": "address"
        },
        {
          "indexed": false,
          "internalType": "string",
          "name": "ipfsHash",
          "type": "string"
        }
      ],
      "name": "LicenseStored",
      "type": "event"
    },
    {
      "inputs": [
        {
          "internalType": "string",
          "name": "ipfsHash",
          "type": "string"
        }
      ],
      "name": "storeLicense",
      "outputs": [],
      "stateMutability": "nonpayable",
      "type": "function"
    },
    {
      "inputs": [
        {
          "internalType": "address",
          "name": "user",
          "type": "address"
        }
      ],
      "name": "getLicense",
      "outputs": [
        {
          "internalType": "string",
          "name": "",
          "type": "string"
        }
      ],
      "stateMutability": "view",
      "type": "function",
      "constant": true
    }
  ],
  "bytecode": "0x608060405234801561001057600080fd5b50610447806100206000396000f3fe608060405234801561001057600080fd5b50600436106100365760003560e01c8063269aa7141461003b57806368e1e89314610050575b600080fd5b61004e610049366004610199565b610079565b005b61006361005e36600461024a565b6100d7565b604051610070919061027a565b60405180910390f35b3360009081526020819052604090206100928282610351565b50336001600160a01b03167fc94d8bbbbbeb5a96a6fcca0887869822ec3b64b34d0419a33fc486b8bcab5bd1826040516100cc919061027a565b60405180910390a250565b6001600160a01b03811660009081526020819052604090208054606091906100fe906102c8565b80601f016020809104026020016040519081016040528092919081815260200182805461012a906102c8565b80156101775780601f1061014c57610100808354040283529160200191610177565b820191906000526020600020905b81548152906001019060200180831161015a57829003601f168201915b50505050509050919050565b634e487b7160e01b600052604160045260246000fd5b6000602082840312156101ab57600080fd5b813567ffffffffffffffff808211156101c357600080fd5b818401915084601f8301126101d757600080fd5b8135818111156101e9576101e9610183565b604051601f8201601f19908116603f0116810190838211818310171561021157610211610183565b8160405282815287602084870101111561022a57600080fd5b826020860160208301376000928101602001929092525095945050505050565b60006020828403121561025c57600080fd5b81356001600160a01b038116811461027357600080fd5b9392505050565b600060208083528351808285015260005b818110156102a75785810183015185820160400152820161028b565b506000604082860101526040601f19601f8301168501019250505092915050565b600181811c908216806102dc57607f821691505b6020821081036102fc57634e487b7160e01b600052602260045260246000fd5b50919050565b601f82111561034c57600081815260208120601f850160051c810160208610156103295750805b601f850160051c820191505b8181101561034857828155600101610335565b5050505b505050565b815167ffffffffffffffff81111561036b5761036b610183565b61037f8161037984546102c8565b84610302565b602080601f8311600181146103b4576000841561039c5750858301515b600019600386901b1c1916600185901b178555610348565b600085815260208120601f198616915b828110156103e3578886015182559484019460019091019084016103c4565b50858210156104015787850151600019600388901b60f8161c191681555b5050505050600190811b0190555056fea2646970667358221220f7875a870fe4fcf0b07ef8a431a11a20a1589489c1f3d76def12057efe68b6af64736f6c63430008150033",
  "immutableReferences": {},
  "source": "// SPDX-License-Identifier: MIT\npragma solidity ^0.8.0;\n\ncontract LicenseStorage {\n    mapping(address => string) private licenses;\n\n    event LicenseStored(address indexed user, string ipfsHash);\n\n    function storeLicense(string memory ipfsHash) public {\n        licenses[msg.sender] = ipfsHash;\n        emit LicenseStored(msg.sender, ipfsHash);\n    }\n\n    function getLicense(address user) public view returns (string memory) {\n        return licenses[user];\n    }\n}",
  "sourcePath": "/Users/berkeroglu/ScubaChain/smart-contracts/contracts/LicenseStorage.sol",
  "compiler": {
    "name": "solc",
    "version": "0.8.21+commit.d9974bed.Emscripten.clang"
  },
  "schemaVersion": "3.4.16",
  "updatedAt": "2024-12-20T20:22:57.164Z",
  "networkType": "ethereum",
  "devdoc": {
    "kind": "dev",
    "methods": {},
    "version": 1
  },
  "userdoc": {
    "kind": "user",
    "methods": {},
    "version": 1
  }
}